{
  "contractName": "BurnableToken",
  "abi": [
    {
      "constant": true,
      "inputs": [],
      "name": "totalSupply",
      "outputs": [
        {
          "name": "",
          "type": "uint256"
        }
      ],
      "payable": false,
      "stateMutability": "view",
      "type": "function"
    },
    {
      "constant": true,
      "inputs": [
        {
          "name": "_owner",
          "type": "address"
        }
      ],
      "name": "balanceOf",
      "outputs": [
        {
          "name": "",
          "type": "uint256"
        }
      ],
      "payable": false,
      "stateMutability": "view",
      "type": "function"
    },
    {
      "constant": false,
      "inputs": [
        {
          "name": "_to",
          "type": "address"
        },
        {
          "name": "_value",
          "type": "uint256"
        }
      ],
      "name": "transfer",
      "outputs": [
        {
          "name": "",
          "type": "bool"
        }
      ],
      "payable": false,
      "stateMutability": "nonpayable",
      "type": "function"
    },
    {
      "anonymous": false,
      "inputs": [
        {
          "indexed": true,
          "name": "burner",
          "type": "address"
        },
        {
          "indexed": false,
          "name": "value",
          "type": "uint256"
        }
      ],
      "name": "Burn",
      "type": "event"
    },
    {
      "anonymous": false,
      "inputs": [
        {
          "indexed": true,
          "name": "from",
          "type": "address"
        },
        {
          "indexed": true,
          "name": "to",
          "type": "address"
        },
        {
          "indexed": false,
          "name": "value",
          "type": "uint256"
        }
      ],
      "name": "Transfer",
      "type": "event"
    },
    {
      "constant": false,
      "inputs": [
        {
          "name": "_value",
          "type": "uint256"
        }
      ],
      "name": "burn",
      "outputs": [],
      "payable": false,
      "stateMutability": "nonpayable",
      "type": "function"
    }
  ],
  "bytecode": "0x608060405234801561001057600080fd5b50610361806100206000396000f3006080604052600436106100615763ffffffff7c010000000000000000000000000000000000000000000000000000000060003504166318160ddd811461006657806342966c681461008d57806370a08231146100a7578063a9059cbb146100c8575b600080fd5b34801561007257600080fd5b5061007b610100565b60408051918252519081900360200190f35b34801561009957600080fd5b506100a5600435610106565b005b3480156100b357600080fd5b5061007b600160a060020a0360043516610113565b3480156100d457600080fd5b506100ec600160a060020a036004351660243561012e565b604080519115158252519081900360200190f35b60015490565b610110338261020f565b50565b600160a060020a031660009081526020819052604090205490565b6000600160a060020a038316151561014557600080fd5b3360009081526020819052604090205482111561016157600080fd5b33600090815260208190526040902054610181908363ffffffff61031016565b3360009081526020819052604080822092909255600160a060020a038516815220546101b3908363ffffffff61032216565b600160a060020a038416600081815260208181526040918290209390935580518581529051919233927fddf252ad1be2c89b69c2b068fc378daa952ba7f163c4a11628f55a4df523b3ef9281900390910190a350600192915050565b600160a060020a03821660009081526020819052604090205481111561023457600080fd5b600160a060020a03821660009081526020819052604090205461025d908263ffffffff61031016565b600160a060020a038316600090815260208190526040902055600154610289908263ffffffff61031016565b600155604080518281529051600160a060020a038416917fcc16f5dbb4873280815c1ee09dbd06736cffcc184412cf7a71a0fdb75d397ca5919081900360200190a2604080518281529051600091600160a060020a038516917fddf252ad1be2c89b69c2b068fc378daa952ba7f163c4a11628f55a4df523b3ef9181900360200190a35050565b60008282111561031c57fe5b50900390565b8181018281101561032f57fe5b929150505600a165627a7a72305820168a790614bb26e87aec86f5d6d7711377035acc06df2654260be7ce34359cc30029",
  "source": "pragma solidity ^0.4.23;\n\nimport \"./BasicToken.sol\";\n\n\n/**\n * @title Burnable Token\n * @dev Token that can be irreversibly burned (destroyed).\n */\ncontract BurnableToken is BasicToken {\n\n  event Burn(address indexed burner, uint256 value);\n\n  /**\n   * @dev Burns a specific amount of tokens.\n   * @param _value The amount of token to be burned.\n   */\n  function burn(uint256 _value) public {\n    _burn(msg.sender, _value);\n  }\n\n  function _burn(address _who, uint256 _value) internal {\n    require(_value <= balances[_who]);\n    // no need to require value <= totalSupply, since that would imply the\n    // sender's balance is greater than the totalSupply, which *should* be an assertion failure\n\n    balances[_who] = balances[_who].sub(_value);\n    totalSupply_ = totalSupply_.sub(_value);\n    emit Burn(_who, _value);\n    emit Transfer(_who, address(0), _value);\n  }\n}\n",
  "sourcePath": "openzeppelin-solidity/contracts/token/ERC20/BurnableToken.sol",
  "compiler": {
    "name": "solc",
    "version": "0.4.24+commit.e67f0147.Emscripten.clang"
  },
  "schemaVersion": "2.0.1",
  "updatedAt": "2018-11-28T07:59:47.385Z"
}