{
  "contractName": "DataXchainToken",
  "abi": [
    {
      "constant": true,
      "inputs": [],
      "name": "name",
      "outputs": [
        {
          "name": "",
          "type": "string"
        }
      ],
      "payable": false,
      "stateMutability": "view",
      "type": "function"
    },
    {
      "constant": false,
      "inputs": [
        {
          "name": "_spender",
          "type": "address"
        },
        {
          "name": "_value",
          "type": "uint256"
        }
      ],
      "name": "approve",
      "outputs": [
        {
          "name": "",
          "type": "bool"
        }
      ],
      "payable": false,
      "stateMutability": "nonpayable",
      "type": "function"
    },
    {
      "constant": true,
      "inputs": [],
      "name": "totalSupply",
      "outputs": [
        {
          "name": "",
          "type": "uint256"
        }
      ],
      "payable": false,
      "stateMutability": "view",
      "type": "function"
    },
    {
      "constant": false,
      "inputs": [
        {
          "name": "_from",
          "type": "address"
        },
        {
          "name": "_to",
          "type": "address"
        },
        {
          "name": "_value",
          "type": "uint256"
        }
      ],
      "name": "transferFrom",
      "outputs": [
        {
          "name": "",
          "type": "bool"
        }
      ],
      "payable": false,
      "stateMutability": "nonpayable",
      "type": "function"
    },
    {
      "constant": true,
      "inputs": [],
      "name": "decimals",
      "outputs": [
        {
          "name": "",
          "type": "uint8"
        }
      ],
      "payable": false,
      "stateMutability": "view",
      "type": "function"
    },
    {
      "constant": false,
      "inputs": [],
      "name": "unpause",
      "outputs": [],
      "payable": false,
      "stateMutability": "nonpayable",
      "type": "function"
    },
    {
      "constant": false,
      "inputs": [
        {
          "name": "_value",
          "type": "uint256"
        }
      ],
      "name": "burn",
      "outputs": [],
      "payable": false,
      "stateMutability": "nonpayable",
      "type": "function"
    },
    {
      "constant": true,
      "inputs": [],
      "name": "paused",
      "outputs": [
        {
          "name": "",
          "type": "bool"
        }
      ],
      "payable": false,
      "stateMutability": "view",
      "type": "function"
    },
    {
      "constant": false,
      "inputs": [
        {
          "name": "_spender",
          "type": "address"
        },
        {
          "name": "_subtractedValue",
          "type": "uint256"
        }
      ],
      "name": "decreaseApproval",
      "outputs": [
        {
          "name": "success",
          "type": "bool"
        }
      ],
      "payable": false,
      "stateMutability": "nonpayable",
      "type": "function"
    },
    {
      "constant": true,
      "inputs": [
        {
          "name": "_owner",
          "type": "address"
        }
      ],
      "name": "balanceOf",
      "outputs": [
        {
          "name": "",
          "type": "uint256"
        }
      ],
      "payable": false,
      "stateMutability": "view",
      "type": "function"
    },
    {
      "constant": false,
      "inputs": [],
      "name": "renounceOwnership",
      "outputs": [],
      "payable": false,
      "stateMutability": "nonpayable",
      "type": "function"
    },
    {
      "constant": false,
      "inputs": [],
      "name": "pause",
      "outputs": [],
      "payable": false,
      "stateMutability": "nonpayable",
      "type": "function"
    },
    {
      "constant": true,
      "inputs": [],
      "name": "owner",
      "outputs": [
        {
          "name": "",
          "type": "address"
        }
      ],
      "payable": false,
      "stateMutability": "view",
      "type": "function"
    },
    {
      "constant": true,
      "inputs": [],
      "name": "symbol",
      "outputs": [
        {
          "name": "",
          "type": "string"
        }
      ],
      "payable": false,
      "stateMutability": "view",
      "type": "function"
    },
    {
      "constant": false,
      "inputs": [
        {
          "name": "_to",
          "type": "address"
        },
        {
          "name": "_value",
          "type": "uint256"
        }
      ],
      "name": "transfer",
      "outputs": [
        {
          "name": "",
          "type": "bool"
        }
      ],
      "payable": false,
      "stateMutability": "nonpayable",
      "type": "function"
    },
    {
      "constant": false,
      "inputs": [
        {
          "name": "_spender",
          "type": "address"
        },
        {
          "name": "_addedValue",
          "type": "uint256"
        }
      ],
      "name": "increaseApproval",
      "outputs": [
        {
          "name": "success",
          "type": "bool"
        }
      ],
      "payable": false,
      "stateMutability": "nonpayable",
      "type": "function"
    },
    {
      "constant": true,
      "inputs": [
        {
          "name": "_owner",
          "type": "address"
        },
        {
          "name": "_spender",
          "type": "address"
        }
      ],
      "name": "allowance",
      "outputs": [
        {
          "name": "",
          "type": "uint256"
        }
      ],
      "payable": false,
      "stateMutability": "view",
      "type": "function"
    },
    {
      "constant": false,
      "inputs": [
        {
          "name": "_newOwner",
          "type": "address"
        }
      ],
      "name": "transferOwnership",
      "outputs": [],
      "payable": false,
      "stateMutability": "nonpayable",
      "type": "function"
    },
    {
      "inputs": [
        {
          "name": "initialBalance",
          "type": "uint256"
        }
      ],
      "payable": false,
      "stateMutability": "nonpayable",
      "type": "constructor"
    },
    {
      "anonymous": false,
      "inputs": [
        {
          "indexed": true,
          "name": "burner",
          "type": "address"
        },
        {
          "indexed": false,
          "name": "value",
          "type": "uint256"
        }
      ],
      "name": "Burn",
      "type": "event"
    },
    {
      "anonymous": false,
      "inputs": [],
      "name": "Pause",
      "type": "event"
    },
    {
      "anonymous": false,
      "inputs": [],
      "name": "Unpause",
      "type": "event"
    },
    {
      "anonymous": false,
      "inputs": [
        {
          "indexed": true,
          "name": "previousOwner",
          "type": "address"
        }
      ],
      "name": "OwnershipRenounced",
      "type": "event"
    },
    {
      "anonymous": false,
      "inputs": [
        {
          "indexed": true,
          "name": "previousOwner",
          "type": "address"
        },
        {
          "indexed": true,
          "name": "newOwner",
          "type": "address"
        }
      ],
      "name": "OwnershipTransferred",
      "type": "event"
    },
    {
      "anonymous": false,
      "inputs": [
        {
          "indexed": true,
          "name": "owner",
          "type": "address"
        },
        {
          "indexed": true,
          "name": "spender",
          "type": "address"
        },
        {
          "indexed": false,
          "name": "value",
          "type": "uint256"
        }
      ],
      "name": "Approval",
      "type": "event"
    },
    {
      "anonymous": false,
      "inputs": [
        {
          "indexed": true,
          "name": "from",
          "type": "address"
        },
        {
          "indexed": true,
          "name": "to",
          "type": "address"
        },
        {
          "indexed": false,
          "name": "value",
          "type": "uint256"
        }
      ],
      "name": "Transfer",
      "type": "event"
    }
  ],
  "bytecode": "0x6003805460a060020a60ff021916905560c0604052600a60808190527f4461746158636861696e0000000000000000000000000000000000000000000060a090815261004e91600491906100fb565b506040805180820190915260048082527f44584354000000000000000000000000000000000000000000000000000000006020909201918252610093916005916100fb565b506006805460ff191660121790553480156100ad57600080fd5b50604051602080610f34833981016040908152905160038054600160a060020a0319163390811790915560065460ff16600a0a90910260018190556000918252602082905291902055610196565b828054600181600116156101000203166002900490600052602060002090601f016020900481019282601f1061013c57805160ff1916838001178555610169565b82800160010185558215610169579182015b8281111561016957825182559160200191906001019061014e565b50610175929150610179565b5090565b61019391905b80821115610175576000815560010161017f565b90565b610d8f806101a56000396000f3006080604052600436106100fb5763ffffffff7c010000000000000000000000000000000000000000000000000000000060003504166306fdde038114610100578063095ea7b31461018a57806318160ddd146101c257806323b872dd146101e9578063313ce567146102135780633f4ba83a1461023e57806342966c68146102555780635c975abb1461026d578063661884631461028257806370a08231146102a6578063715018a6146102c75780638456cb59146102dc5780638da5cb5b146102f157806395d89b4114610322578063a9059cbb14610337578063d73dd6231461035b578063dd62ed3e1461037f578063f2fde38b146103a6575b600080fd5b34801561010c57600080fd5b506101156103c7565b6040805160208082528351818301528351919283929083019185019080838360005b8381101561014f578181015183820152602001610137565b50505050905090810190601f16801561017c5780820380516001836020036101000a031916815260200191505b509250505060405180910390f35b34801561019657600080fd5b506101ae600160a060020a0360043516602435610455565b604080519115158252519081900360200190f35b3480156101ce57600080fd5b506101d7610480565b60408051918252519081900360200190f35b3480156101f557600080fd5b506101ae600160a060020a0360043581169060243516604435610486565b34801561021f57600080fd5b506102286104b3565b6040805160ff9092168252519081900360200190f35b34801561024a57600080fd5b506102536104bc565b005b34801561026157600080fd5b50610253600435610534565b34801561027957600080fd5b506101ae610541565b34801561028e57600080fd5b506101ae600160a060020a0360043516602435610551565b3480156102b257600080fd5b506101d7600160a060020a0360043516610575565b3480156102d357600080fd5b50610253610590565b3480156102e857600080fd5b506102536105fe565b3480156102fd57600080fd5b5061030661067b565b60408051600160a060020a039092168252519081900360200190f35b34801561032e57600080fd5b5061011561068a565b34801561034357600080fd5b506101ae600160a060020a03600435166024356106e5565b34801561036757600080fd5b506101ae600160a060020a0360043516602435610709565b34801561038b57600080fd5b506101d7600160a060020a036004358116906024351661072d565b3480156103b257600080fd5b50610253600160a060020a0360043516610758565b6004805460408051602060026001851615610100026000190190941693909304601f8101849004840282018401909252818152929183018282801561044d5780601f106104225761010080835404028352916020019161044d565b820191906000526020600020905b81548152906001019060200180831161043057829003601f168201915b505050505081565b60035460009060a060020a900460ff161561046f57600080fd5b6104798383610778565b9392505050565b60015490565b60035460009060a060020a900460ff16156104a057600080fd5b6104ab8484846107de565b949350505050565b60065460ff1681565b600354600160a060020a031633146104d357600080fd5b60035460a060020a900460ff1615156104eb57600080fd5b6003805474ff0000000000000000000000000000000000000000191690556040517f7805862f689e2f13df9f062ff482ad3ad112aca9e0847911ed832e158c525b3390600090a1565b61053e3382610955565b50565b60035460a060020a900460ff1681565b60035460009060a060020a900460ff161561056b57600080fd5b6104798383610a56565b600160a060020a031660009081526020819052604090205490565b600354600160a060020a031633146105a757600080fd5b600354604051600160a060020a03909116907ff8df31144d9c2f0f6b59d69b8b98abd5459d07f2742c4df920b25aae33c6482090600090a26003805473ffffffffffffffffffffffffffffffffffffffff19169055565b600354600160a060020a0316331461061557600080fd5b60035460a060020a900460ff161561062c57600080fd5b6003805474ff0000000000000000000000000000000000000000191660a060020a1790556040517f6985a02210a168e66602d3235cb6db0e70f92b3ba4d376a33c0f3d9434bff62590600090a1565b600354600160a060020a031681565b6005805460408051602060026001851615610100026000190190941693909304601f8101849004840282018401909252818152929183018282801561044d5780601f106104225761010080835404028352916020019161044d565b60035460009060a060020a900460ff16156106ff57600080fd5b6104798383610b46565b60035460009060a060020a900460ff161561072357600080fd5b6104798383610c27565b600160a060020a03918216600090815260026020908152604080832093909416825291909152205490565b600354600160a060020a0316331461076f57600080fd5b61053e81610cc0565b336000818152600260209081526040808320600160a060020a038716808552908352818420869055815186815291519394909390927f8c5be1e5ebec7d5bd14f71427d1e84f3dd0314c0f7b2291e5b200ac8c7c3b925928290030190a350600192915050565b6000600160a060020a03831615156107f557600080fd5b600160a060020a03841660009081526020819052604090205482111561081a57600080fd5b600160a060020a038416600090815260026020908152604080832033845290915290205482111561084a57600080fd5b600160a060020a038416600090815260208190526040902054610873908363ffffffff610d3e16565b600160a060020a0380861660009081526020819052604080822093909355908516815220546108a8908363ffffffff610d5016565b600160a060020a038085166000908152602081815260408083209490945591871681526002825282812033825290915220546108ea908363ffffffff610d3e16565b600160a060020a03808616600081815260026020908152604080832033845282529182902094909455805186815290519287169391927fddf252ad1be2c89b69c2b068fc378daa952ba7f163c4a11628f55a4df523b3ef929181900390910190a35060019392505050565b600160a060020a03821660009081526020819052604090205481111561097a57600080fd5b600160a060020a0382166000908152602081905260409020546109a3908263ffffffff610d3e16565b600160a060020a0383166000908152602081905260409020556001546109cf908263ffffffff610d3e16565b600155604080518281529051600160a060020a038416917fcc16f5dbb4873280815c1ee09dbd06736cffcc184412cf7a71a0fdb75d397ca5919081900360200190a2604080518281529051600091600160a060020a038516917fddf252ad1be2c89b69c2b068fc378daa952ba7f163c4a11628f55a4df523b3ef9181900360200190a35050565b336000908152600260209081526040808320600160a060020a038616845290915281205480831115610aab57336000908152600260209081526040808320600160a060020a0388168452909152812055610ae0565b610abb818463ffffffff610d3e16565b336000908152600260209081526040808320600160a060020a03891684529091529020555b336000818152600260209081526040808320600160a060020a0389168085529083529281902054815190815290519293927f8c5be1e5ebec7d5bd14f71427d1e84f3dd0314c0f7b2291e5b200ac8c7c3b925929181900390910190a35060019392505050565b6000600160a060020a0383161515610b5d57600080fd5b33600090815260208190526040902054821115610b7957600080fd5b33600090815260208190526040902054610b99908363ffffffff610d3e16565b3360009081526020819052604080822092909255600160a060020a03851681522054610bcb908363ffffffff610d5016565b600160a060020a038416600081815260208181526040918290209390935580518581529051919233927fddf252ad1be2c89b69c2b068fc378daa952ba7f163c4a11628f55a4df523b3ef9281900390910190a350600192915050565b336000908152600260209081526040808320600160a060020a0386168452909152812054610c5b908363ffffffff610d5016565b336000818152600260209081526040808320600160a060020a0389168085529083529281902085905580519485525191937f8c5be1e5ebec7d5bd14f71427d1e84f3dd0314c0f7b2291e5b200ac8c7c3b925929081900390910190a350600192915050565b600160a060020a0381161515610cd557600080fd5b600354604051600160a060020a038084169216907f8be0079c531659141344cd1fd0a4f28419497f9722a3daafe3b4186f6b6457e090600090a36003805473ffffffffffffffffffffffffffffffffffffffff1916600160a060020a0392909216919091179055565b600082821115610d4a57fe5b50900390565b81810182811015610d5d57fe5b929150505600a165627a7a723058200dc3adc440fb2f16c50f3aa7e9275e483257eb5a3bcd9b37bc7efffd9bf58c3f0029",
  "source": "pragma solidity ^0.4.24;\n\nimport \"openzeppelin-solidity/contracts/token/ERC20/StandardToken.sol\";\nimport \"openzeppelin-solidity/contracts/token/ERC20/PausableToken.sol\";\nimport \"openzeppelin-solidity/contracts/token/ERC20/BurnableToken.sol\";\n\ncontract DataXchainToken is StandardToken, PausableToken, BurnableToken{\n    string public name = \"DataXchain\";\n    string public symbol = \"DXCT\";\n    uint8 public decimals = 18;\n\n\n    constructor\n        (\n            uint256 initialBalance\n        )\n        public\n        {\n            totalSupply_ = initialBalance * (10 ** uint256(decimals));\n            balances[msg.sender] = totalSupply_;\n\n\n        }\n}\n",
  "sourcePath": "/usr/src/app/contracts/DataXchainToken.sol",
  "compiler": {
    "name": "solc",
    "version": "0.4.24+commit.e67f0147.Emscripten.clang"
  },
  "schemaVersion": "2.0.1",
  "updatedAt": "2018-11-28T08:11:50.992Z"
}