{
  "contractName": "TokenDistributor",
  "abi": [
    {
      "constant": false,
      "inputs": [],
      "name": "renounceOwnership",
      "outputs": [],
      "payable": false,
      "stateMutability": "nonpayable",
      "type": "function"
    },
    {
      "constant": true,
      "inputs": [],
      "name": "owner",
      "outputs": [
        {
          "name": "",
          "type": "address"
        }
      ],
      "payable": false,
      "stateMutability": "view",
      "type": "function"
    },
    {
      "constant": false,
      "inputs": [
        {
          "name": "_newOwner",
          "type": "address"
        }
      ],
      "name": "transferOwnership",
      "outputs": [],
      "payable": false,
      "stateMutability": "nonpayable",
      "type": "function"
    },
    {
      "constant": true,
      "inputs": [],
      "name": "token",
      "outputs": [
        {
          "name": "",
          "type": "address"
        }
      ],
      "payable": false,
      "stateMutability": "view",
      "type": "function"
    },
    {
      "inputs": [
        {
          "name": "_token",
          "type": "address"
        }
      ],
      "payable": false,
      "stateMutability": "nonpayable",
      "type": "constructor"
    },
    {
      "anonymous": false,
      "inputs": [
        {
          "indexed": false,
          "name": "tx",
          "type": "string"
        },
        {
          "indexed": false,
          "name": "beneficiary",
          "type": "address"
        },
        {
          "indexed": false,
          "name": "tokenAmount",
          "type": "uint256"
        }
      ],
      "name": "LogTransferToken",
      "type": "event"
    },
    {
      "anonymous": false,
      "inputs": [
        {
          "indexed": false,
          "name": "sender",
          "type": "address"
        },
        {
          "indexed": false,
          "name": "tokenAmount",
          "type": "uint256"
        }
      ],
      "name": "LogBurnToken",
      "type": "event"
    },
    {
      "anonymous": false,
      "inputs": [
        {
          "indexed": false,
          "name": "owner",
          "type": "address"
        },
        {
          "indexed": false,
          "name": "tokenAmount",
          "type": "uint256"
        }
      ],
      "name": "LogGetBackOwnerToken",
      "type": "event"
    },
    {
      "anonymous": false,
      "inputs": [
        {
          "indexed": true,
          "name": "previousOwner",
          "type": "address"
        }
      ],
      "name": "OwnershipRenounced",
      "type": "event"
    },
    {
      "anonymous": false,
      "inputs": [
        {
          "indexed": true,
          "name": "previousOwner",
          "type": "address"
        },
        {
          "indexed": true,
          "name": "newOwner",
          "type": "address"
        }
      ],
      "name": "OwnershipTransferred",
      "type": "event"
    },
    {
      "constant": false,
      "inputs": [
        {
          "name": "_tx",
          "type": "string"
        },
        {
          "name": "_beneficiary",
          "type": "address"
        },
        {
          "name": "_tokenAmount",
          "type": "uint256"
        }
      ],
      "name": "transferToken",
      "outputs": [],
      "payable": false,
      "stateMutability": "nonpayable",
      "type": "function"
    },
    {
      "constant": false,
      "inputs": [],
      "name": "burnToken",
      "outputs": [],
      "payable": false,
      "stateMutability": "nonpayable",
      "type": "function"
    },
    {
      "constant": false,
      "inputs": [],
      "name": "getBackOwnerToken",
      "outputs": [],
      "payable": false,
      "stateMutability": "nonpayable",
      "type": "function"
    }
  ],
  "bytecode": "0x60806040526003805460ff1916905534801561001a57600080fd5b50604051602080610888833981016040525160008054600160a060020a03191633179055600160a060020a038116151561005357600080fd5b60018054600160a060020a031916600160a060020a0392909216919091179055610806806100826000396000f3006080604052600436106100695763ffffffff60e060020a600035041663715018a6811461006e5780637a1742e2146100855780638da5cb5b1461009a578063ee91035e146100cb578063f2fde38b14610135578063faa0a26414610156578063fc0c546a1461016b575b600080fd5b34801561007a57600080fd5b50610083610180565b005b34801561009157600080fd5b506100836101ec565b3480156100a657600080fd5b506100af610362565b60408051600160a060020a039092168252519081900360200190f35b3480156100d757600080fd5b506040805160206004803580820135601f810184900484028501840190955284845261008394369492936024939284019190819084018382808284375094975050508335600160a060020a0316945050506020909101359050610371565b34801561014157600080fd5b50610083600160a060020a0360043516610528565b34801561016257600080fd5b5061008361054b565b34801561017757600080fd5b506100af6106af565b600054600160a060020a0316331461019757600080fd5b60008054604051600160a060020a03909116917ff8df31144d9c2f0f6b59d69b8b98abd5459d07f2742c4df920b25aae33c6482091a26000805473ffffffffffffffffffffffffffffffffffffffff19169055565b600054600160a060020a0316331461020357600080fd5b6001546040805160e060020a6370a08231028152306004820152905161029e923392600160a060020a03909116916370a08231916024808201926020929091908290030181600087803b15801561025957600080fd5b505af115801561026d573d6000803e3d6000fd5b505050506040513d602081101561028357600080fd5b5051600154600160a060020a0316919063ffffffff6106be16565b6001546040805160e060020a6370a0823102815230600482015290517f8e883f136de4c69acbf1af29ef4914f505f8de05f89b9d39ec4e363ea23e73bf923392600160a060020a03909116916370a08231916024808201926020929091908290030181600087803b15801561031257600080fd5b505af1158015610326573d6000803e3d6000fd5b505050506040513d602081101561033c57600080fd5b505160408051600160a060020a03909316835260208301919091528051918290030190a1565b600054600160a060020a031681565b600054600160a060020a0316331461038857600080fd5b6002836040518082805190602001908083835b602083106103ba5780518252601f19909201916020918201910161039b565b51815160209384036101000a60001901801990921691161790529201948552506040519384900301909220541591506103f4905057600080fd5b60015461041190600160a060020a0316838363ffffffff6106be16565b806002846040518082805190602001908083835b602083106104445780518252601f199092019160209182019101610425565b51815160209384036101000a600019018019909216911617905292019485525060408051948590038201852095909555600160a060020a038716848201529383018590525050606080825285519082015284517f84cd4abefee58daceafa3c141b80abf92f1a1558cb1058d6b3ceba5a26b0fe0b928692869286928291608083019187019080838360005b838110156104e75781810151838201526020016104cf565b50505050905090810190601f1680156105145780820380516001836020036101000a031916815260200191505b5094505050505060405180910390a1505050565b600054600160a060020a0316331461053f57600080fd5b6105488161075d565b50565b600054600160a060020a0316331461056257600080fd5b6001546040805160e060020a6370a082310281523060048201529051600160a060020a03909216916342966c689183916370a08231916024808201926020929091908290030181600087803b1580156105ba57600080fd5b505af11580156105ce573d6000803e3d6000fd5b505050506040513d60208110156105e457600080fd5b50516040805160e060020a63ffffffff8516028152600481019290925251602480830192600092919082900301818387803b15801561062257600080fd5b505af1158015610636573d6000803e3d6000fd5b50506001546040805160e060020a6370a08231028152306004820181905291517ffb374335b66b85c7cab11d15eb0f4379e62e00f9cf220ee28da181c80bbb68ca9550919350600160a060020a03909216916370a082319160248083019260209291908290030181600087803b15801561031257600080fd5b600154600160a060020a031681565b82600160a060020a031663a9059cbb83836040518363ffffffff1660e060020a0281526004018083600160a060020a0316600160a060020a0316815260200182815260200192505050602060405180830381600087803b15801561072157600080fd5b505af1158015610735573d6000803e3d6000fd5b505050506040513d602081101561074b57600080fd5b5051151561075857600080fd5b505050565b600160a060020a038116151561077257600080fd5b60008054604051600160a060020a03808516939216917f8be0079c531659141344cd1fd0a4f28419497f9722a3daafe3b4186f6b6457e091a36000805473ffffffffffffffffffffffffffffffffffffffff1916600160a060020a03929092169190911790555600a165627a7a723058203c03fa3dd45d4d41cecd0bdad4f6b9f1f1e73e422c5ed83f9b33e30505e1f9c50029",
  "source": "pragma solidity ^0.4.24;\n\nimport \"openzeppelin-solidity/contracts/ownership/Ownable.sol\";\nimport \"openzeppelin-solidity/contracts/token/ERC20/ERC20.sol\";\nimport \"openzeppelin-solidity/contracts/token/ERC20/SafeERC20.sol\";\nimport \"openzeppelin-solidity/contracts/math/SafeMath.sol\";\nimport \"openzeppelin-solidity/contracts/token/ERC20/BurnableToken.sol\";\n\ncontract TokenDistributor is Ownable {\n  using SafeMath for uint256;\n  using SafeERC20 for ERC20;\n\n  ERC20 public token;\n\n  mapping(string => uint256) distributedTx;\n  bool isInitialDistributed = false;\n\n  event LogTransferToken(string tx, address beneficiary, uint256 tokenAmount);\n  event LogBurnToken(address sender, uint256 tokenAmount);\n  event LogGetBackOwnerToken(address owner, uint256 tokenAmount);\n\n  constructor (ERC20 _token) public {\n    require(_token != address(0));\n    token = _token;\n  }\n\n  function transferToken(string _tx, address _beneficiary,\n    uint256 _tokenAmount) onlyOwner public {\n      require(distributedTx[_tx] == 0);\n\n      token.safeTransfer(_beneficiary, _tokenAmount);\n\n      distributedTx[_tx] = _tokenAmount;\n      emit LogTransferToken(_tx, _beneficiary, _tokenAmount);\n  }\n\n  function burnToken() onlyOwner public {\n    BurnableToken(token).burn(token.balanceOf(address(this)));\n    emit LogBurnToken(address(this), token.balanceOf(address(this)));\n  }\n\n  function getBackOwnerToken() onlyOwner public {\n    token.safeTransfer(msg.sender, token.balanceOf(address(this)));\n    emit LogGetBackOwnerToken(msg.sender, token.balanceOf(address(this)));\n  }\n\n}\n",
  "sourcePath": "/usr/src/app/contracts/TokenDistributor.sol",
  "compiler": {
    "name": "solc",
    "version": "0.4.24+commit.e67f0147.Emscripten.clang"
  },
  "schemaVersion": "2.0.1",
  "updatedAt": "2018-11-28T08:11:50.996Z"
}