{
  "contractName": "TokenRegistor",
  "abi": [
    {
      "constant": true,
      "inputs": [
        {
          "name": "",
          "type": "address"
        }
      ],
      "name": "ids",
      "outputs": [
        {
          "name": "",
          "type": "string"
        }
      ],
      "payable": false,
      "stateMutability": "view",
      "type": "function"
    },
    {
      "constant": false,
      "inputs": [],
      "name": "renounceOwnership",
      "outputs": [],
      "payable": false,
      "stateMutability": "nonpayable",
      "type": "function"
    },
    {
      "constant": true,
      "inputs": [],
      "name": "owner",
      "outputs": [
        {
          "name": "",
          "type": "address"
        }
      ],
      "payable": false,
      "stateMutability": "view",
      "type": "function"
    },
    {
      "constant": false,
      "inputs": [
        {
          "name": "_newOwner",
          "type": "address"
        }
      ],
      "name": "transferOwnership",
      "outputs": [],
      "payable": false,
      "stateMutability": "nonpayable",
      "type": "function"
    },
    {
      "inputs": [],
      "payable": false,
      "stateMutability": "nonpayable",
      "type": "constructor"
    },
    {
      "anonymous": false,
      "inputs": [
        {
          "indexed": false,
          "name": "user",
          "type": "address"
        },
        {
          "indexed": false,
          "name": "id",
          "type": "string"
        }
      ],
      "name": "LogRegister",
      "type": "event"
    },
    {
      "anonymous": false,
      "inputs": [
        {
          "indexed": true,
          "name": "previousOwner",
          "type": "address"
        }
      ],
      "name": "OwnershipRenounced",
      "type": "event"
    },
    {
      "anonymous": false,
      "inputs": [
        {
          "indexed": true,
          "name": "previousOwner",
          "type": "address"
        },
        {
          "indexed": true,
          "name": "newOwner",
          "type": "address"
        }
      ],
      "name": "OwnershipTransferred",
      "type": "event"
    },
    {
      "constant": false,
      "inputs": [
        {
          "name": "id",
          "type": "string"
        }
      ],
      "name": "register",
      "outputs": [],
      "payable": false,
      "stateMutability": "nonpayable",
      "type": "function"
    },
    {
      "constant": true,
      "inputs": [],
      "name": "getConversionLength",
      "outputs": [
        {
          "name": "",
          "type": "uint256"
        }
      ],
      "payable": false,
      "stateMutability": "view",
      "type": "function"
    },
    {
      "constant": true,
      "inputs": [
        {
          "name": "index",
          "type": "uint256"
        }
      ],
      "name": "getConversionAccts",
      "outputs": [
        {
          "name": "",
          "type": "address"
        },
        {
          "name": "",
          "type": "string"
        }
      ],
      "payable": false,
      "stateMutability": "view",
      "type": "function"
    }
  ],
  "bytecode": "0x608060405234801561001057600080fd5b5060008054600160a060020a03191633179055610978806100326000396000f3006080604052600436106100825763ffffffff7c01000000000000000000000000000000000000000000000000000000006000350416631847c06b8114610087578063715018a61461011d57806373763c241461013457806379845ed9146101dd5780638da5cb5b14610204578063f2c298be14610235578063f2fde38b1461028e575b600080fd5b34801561009357600080fd5b506100a8600160a060020a03600435166102af565b6040805160208082528351818301528351919283929083019185019080838360005b838110156100e25781810151838201526020016100ca565b50505050905090810190601f16801561010f5780820380516001836020036101000a031916815260200191505b509250505060405180910390f35b34801561012957600080fd5b50610132610349565b005b34801561014057600080fd5b5061014c6004356103b5565b6040518083600160a060020a0316600160a060020a0316815260200180602001828103825283818151815260200191508051906020019080838360005b838110156101a1578181015183820152602001610189565b50505050905090810190601f1680156101ce5780820380516001836020036101000a031916815260200191505b50935050505060405180910390f35b3480156101e957600080fd5b506101f26104be565b60408051918252519081900360200190f35b34801561021057600080fd5b506102196104de565b60408051600160a060020a039092168252519081900360200190f35b34801561024157600080fd5b506040805160206004803580820135601f81018490048402850184019095528484526101329436949293602493928401919081908401838280828437509497506104ed9650505050505050565b34801561029a57600080fd5b50610132600160a060020a03600435166107fc565b60016020818152600092835260409283902080548451600294821615610100026000190190911693909304601f81018390048302840183019094528383529192908301828280156103415780601f1061031657610100808354040283529160200191610341565b820191906000526020600020905b81548152906001019060200180831161032457829003601f168201915b505050505081565b600054600160a060020a0316331461036057600080fd5b60008054604051600160a060020a03909116917ff8df31144d9c2f0f6b59d69b8b98abd5459d07f2742c4df920b25aae33c6482091a26000805473ffffffffffffffffffffffffffffffffffffffff19169055565b60008054606090600160a060020a031633146103d057600080fd5b60028054849081106103de57fe5b60009182526020909120600291820201548154600160a060020a0390911691908590811061040857fe5b9060005260206000209060020201600101808054600181600116156101000203166002900480601f0160208091040260200160405190810160405280929190818152602001828054600181600116156101000203166002900480156104ae5780601f10610483576101008083540402835291602001916104ae565b820191906000526020600020905b81548152906001019060200180831161049157829003601f168201915b5050505050905091509150915091565b60008054600160a060020a031633146104d657600080fd5b506002545b90565b600054600160a060020a031681565b6104f561089c565b60408051336000908152600160208181529390912080547fc5d2460186f7233c927e7db2dcc703c0e500b653ca82273b7bfad8045d85a47094919391909101918291849160026101009183161591909102600019019091160480156105915780601f1061056f576101008083540402835291820191610591565b820191906000526020600020905b81548152906001019060200180831161057d575b50509150506040516020818303038152906040526040518082805190602001908083835b602083106105d45780518252601f1990920191602091820191016105b5565b6001836020036101000a03801982511681845116808217855250505050505090500191505060405180910390206000191614156106df5750604080518082019091523381526020808201838152600280546001808201808455600084905286517f405787fa12a823e0f2b7631cc41b3ba8828b3321ca811111fa75cd3aa3bb5ace93909402928301805473ffffffffffffffffffffffffffffffffffffffff1916600160a060020a039095169490941784559351805191958794936106c1937f405787fa12a823e0f2b7631cc41b3ba8828b3321ca811111fa75cd3aa3bb5acf90910192909101906108b4565b50503360009081526003602052604090209290910390915550610724565b336000908152600360205260409020546002805484929081106106fe57fe5b906000526020600020906002020160010190805190602001906107229291906108b4565b505b3360009081526001602090815260409091208351610744928501906108b4565b507fd80364ba2cbb1e827ab8adac9651cdfc27fb7b61c0a95663cb80b82d7636ad2233836040518083600160a060020a0316600160a060020a0316815260200180602001828103825283818151815260200191508051906020019080838360005b838110156107bd5781810151838201526020016107a5565b50505050905090810190601f1680156107ea5780820380516001836020036101000a031916815260200191505b50935050505060405180910390a15050565b600054600160a060020a0316331461081357600080fd5b61081c8161081f565b50565b600160a060020a038116151561083457600080fd5b60008054604051600160a060020a03808516939216917f8be0079c531659141344cd1fd0a4f28419497f9722a3daafe3b4186f6b6457e091a36000805473ffffffffffffffffffffffffffffffffffffffff1916600160a060020a0392909216919091179055565b60408051808201909152600081526060602082015290565b828054600181600116156101000203166002900490600052602060002090601f016020900481019282601f106108f557805160ff1916838001178555610922565b82800160010185558215610922579182015b82811115610922578251825591602001919060010190610907565b5061092e929150610932565b5090565b6104db91905b8082111561092e57600081556001016109385600a165627a7a7230582072d8d5452ca364ddb1829a2a2ee03ae94b78a1353914fdefa986d32d0f11e6810029",
  "source": "pragma solidity ^0.4.24;\n\nimport \"openzeppelin-solidity/contracts/ownership/Ownable.sol\";\nimport \"openzeppelin-solidity/contracts/math/SafeMath.sol\";\n\ncontract TokenRegistor is Ownable {\n  using SafeMath for uint256;\n\n  struct Conversion {\n    address fromAddress;\n    string id;\n  }\n\n  mapping(address => string) public ids;\n  Conversion[] conversionAccts;\n  mapping(address => uint) conversionAcctsIndices;\n\n  event LogRegister (address user, string id);\n\n  constructor () public {\n  }\n\n  function register(string id) public {\n    if (keccak256(abi.encodePacked(ids[msg.sender])) == keccak256(\"\")) {\n  \t\t\tConversion memory conversion = Conversion(msg.sender, id);\n  \t\t\tconversionAcctsIndices[msg.sender] = conversionAccts.push(conversion) - 1;\n  \t\t}\n  \t\telse {\n  \t\t\tconversionAccts[conversionAcctsIndices[msg.sender]].id = id;\n  \t\t}\n  \t\tids[msg.sender] = id;\n  \t\temit LogRegister(msg.sender, id);\n  }\n\n  function getConversionLength() onlyOwner public view returns (uint) {\n    return conversionAccts.length;\n  }\n\n  function getConversionAccts(uint index) onlyOwner public view returns\n  (address, string) {\n    return (conversionAccts[index].fromAddress, conversionAccts[index].id);\n  }\n\n}\n",
  "sourcePath": "/usr/src/app/contracts/TokenRegistor.sol",
  "compiler": {
    "name": "solc",
    "version": "0.4.24+commit.e67f0147.Emscripten.clang"
  },
  "schemaVersion": "2.0.1",
  "updatedAt": "2018-11-28T08:11:51.000Z"
}